:020000040000FA
:0400000007EF00F016
:0A000800378240ED03F032EF06F0FE
:100600000020504F5254414F204645434841444FEB
:10061000210020504F5254414F2041424552544FE7
:1006200021002020202046454348414E444F2E2E95
:1006300000504F5254414F204A41204553544100ED
:100640002020202050415241444F2E2E0020494E60
:10065000494349414E444F2E2E0020202041425212
:10066000494E444F2E2E0020202046454348414409
:100670004F21002020202041424552544F210000AC
:100680000600E9CF29F0EACF2AF0D9CF2BF0DACF54
:100690002CF0F6CF2DF0F7CF2EF0F8CF2FF0F5CFCE
:1006A00030F0F2A456EF03F058EF03F05FEF03F0E1
:1006B000F294164A172A000ED76E060ED66E9EAA20
:1006C00064EF03F066EF03F027EF04F09E9AAE505C
:1006D000FAEC04F034EC05F0310EAE18D8A473EF48
:1006E00003F075EF03F0BBEF03F0270E276EF50E56
:1006F000E82EFED7272EFCD700F082B282EF03F05F
:1007000084EF03F0A2EF03F034EC05F0310E246E19
:10071000060E256EC8EC05F0280E6CEC06F0730E84
:10072000246E060E256EC8EC05F0100E286E390EEC
:10073000276E0E0EE82EFED7272EFCD7282EFAD7CE
:10074000BBEF03F034EC05F05A0E246E060E256E56
:10075000C8EC05F0819C819A8180000EAE6E000E7F
:100760000B6E010E0A6E000E096E000E086E000E72
:100770000D6E000E0C6E320EAE18D8A4C2EF03F050
:10078000C4EF03F00AEF04F0270E276EF50EE82EF3
:10079000FED7272EFCD700F082B4D1EF03F0D3EFC1
:1007A00003F0F1EF03F034EC05F0310E246E060E89
:1007B000256EC8EC05F0280E6CEC06F0100E286EC5
:1007C000390E276E0E0EE82EFED7272EFCD7282EC8
:1007D000FAD7670E246E060E256EC8EC05F00AEFF8
:1007E00004F034EC05F0220E246E060E256EC8ECE3
:1007F00005F0818C819A8190000EAE6E000E096E1C
:10080000010E086E000E0B6E000E0A6E000E0F6ECB
:10081000000E0E6E330EAE18D8A411EF04F013EFD5
:1008200004F027EF04F0270E276EF50EE82EFED712
:10083000272EFCD700F034EC05F0410E246E060E96
:10084000256EC8EC05F0819C8190000EAE6E30C024
:10085000F5FF2FC0F8FF2EC0F7FF2DC0F6FF2CC00C
:10086000DAFF2BC0D9FF2AC0EAFF29C0E9FF37927F
:100870001100F8EC05F067EC05F0400E326E060E44
:10088000336E98EC05F0000E816E000E836E000E44
:10089000846E000ED76E060ED66E818A270E356ED8
:1008A000F50EE82EFED7352EFCD700F082B25BEFB6
:1008B00004F05DEF04F08EEF04F008500910D8A4A6
:1008C00064EF04F066EF04F08EEF04F0070E356E6F
:1008D0007D0EE82EFED7352EFCD700F067EC05F034
:1008E000120E326E060E336E98EC05F0818A8190FE
:1008F0009EA87DEF04F07FEF04F078EF04F00E5037
:100900000F10D8A486EF04F088EF04F08EEF04F007
:10091000310EAD6E000E0F6E010E0E6E270E356E8F
:10092000F50EE82EFED7352EFCD700F082B49BEFF3
:1009300004F09DEF04F0CEEF04F00A500B10D8A4A1
:10094000A4EF04F0A6EF04F0CEEF04F0070E356E2E
:100950007D0EE82EFED7352EFCD700F067EC05F0B3
:10096000010E326E060E336E98EC05F0819C818A82
:100970009EA8BDEF04F0BFEF04F0B8EF04F00C50F8
:100980000D10D8A4C6EF04F0C8EF04F0CEEF04F0C9
:10099000320EAD6E000E0D6E010E0C6E82B6D3EFF0
:1009A00004F0D5EF04F04EEF04F0070E356E7D0E27
:1009B000E82EFED7352EFCD700F082B6E2EF04F029
:1009C000E4EF04F04EEF04F082A6E9EF04F0EBEF61
:1009D00004F0E4EF04F0819C818A819067EC05F0DB
:1009E000400E326E060E336E98EC05F04EEF04F0BA
:1009F00007EF00F0266E230E2618D8A402EF05F0AC
:100A000004EF05F00BEF05F03680000E116E000EBE
:100A1000106E33EF05F02A0E2618D8A412EF05F059
:100A200014EF05F019EF05F0369017EC06F033EFF0
:100A300005F036A01EEF05F020EF05F033EF05F0CE
:100A4000230E2618D8B427EF05F029EF05F033EF71
:100A500005F0050E1024D96E000E1120DA6E26C0A6
:100A6000DFFF104A112A1200030E266E8D908D9220
:100A7000140E256E7A0EE82EFED7252EFCD726C042
:100A800083FF8D828D92070E256E7D0EE82EFED798
:100A9000252EFCD700F08D828D92420EE82EFED7D7
:100AA00000D08D828D92420EE82EFED700D0020E2D
:100AB000836E8D828D92380E62EC06F0060E62EC2B
:100AC00006F00C0E62EC06F04CEC06F012008D9075
:100AD0008D92140E336E7A0EE82EFED7332EFCD78D
:100AE000030E836E8D828D92070E336E7D0EE82E7F
:100AF000FED7332EFCD700F08D828D92420EE82E69
:100B0000FED700D08D828D92420EE82EFED700D007
:100B1000020E836E8D828D92380E58EC06F0060E12
:100B200058EC06F00C0E58EC06F040EC06F0120003
:100B30008D80AFEF05F032C0F6FF33C0F7FFF86AE3
:100B4000050EF76403D00800F55005D0F6CFE9FF95
:100B5000F7CFEAFFEF5058EC06F0324A332A32C0A2
:100B6000F6FF33C0F7FFF86A050EF76403D00800FC
:100B7000F55005D0F6CFE9FFF7CFEAFFEF500009B7
:100B8000D8A4C5EF05F0C7EF05F09BEF05F0120004
:100B90008D80DFEF05F024C0F6FF25C0F7FFF86A6F
:100BA000050EF76403D00800F55005D0F6CFE9FF35
:100BB000F7CFEAFFEF5062EC06F0244A252A24C062
:100BC000F6FF25C0F7FFF86A050EF76403D00800AA
:100BD000F55005D0F6CFE9FFF7CFEAFFEF50000957
:100BE000D8A4F5EF05F0F7EF05F0CBEF05F0120014
:100BF000DF0E926E000E936E9468000E956E0C0ED2
:100C0000966E630ED36ED08EA00EF26EC30ED56EAE
:100C1000010EC26E0E0EC16E940EC06E240EAC6E2E
:100C2000900EAB6E000EB86E190EAF6E12004CEC4B
:100C300006F0000E6CEC06F0180E246E000E256E09
:100C4000C8EC05F04D0E246E060E256EC8EC05F0BE
:100C5000280E6CEC06F01E0E246E000E256EC8ECFD
:100C600005F01200366A00EE01F0220EEE6AE80688
:100C7000FDE137903792000EF86E000139EF04F075
:100C80008D90010E58EC06F0030E326E980EE82E91
:100C9000FED7322EFCD712008D90010E62EC06F0CA
:100CA000030E246E980EE82EFED7242EFCD71200D9
:100CB000316EC80E00D0E82EFDD731C083FF8D8283
:100CC0008D921200236EC80E00D0E82EFDD723C0EF
:100CD00083FF8D828D921200246E8D902450800FA0
:060CE00062EC06F01200B8
:020000040020DA
:08000000FFFFFFFFFFFFFFFF00
:020000040030CA
:0E000000FF081F1EFF8181FF0FC00FE00F40A1
:00000001FF
